S014000046696E616C50726F6A6563742E737265634F
S11300000C9487000C94A4000C94A4000C94A400F9
S11300100C94A4000C94A4000C94A4000C94A400CC
S11300200C94A4000C94A4000C94A4000C94A400BC
S11300300C94A4000C94A4000C94A4000C94A400AC
S11300400C94A4000C94A4000C94A4000C94A4009C
S11300500C94A4000C94A4000C94A4000C94A4008C
S11300600C94A4000C94A4000C94A4000C94A4007C
S11300700C94A4000C94A4000C94A4000C94A4006C
S11300800C94A4000C94A4000C94A4000C94A4005C
S11300900C94A4000C94A4000C94A4000C94A4004C
S11300A00C94A4000C94A4000C94A4000C94A4003C
S11300B00C94A40008000000BE922449123EABAA8E
S11300C0AA2ABECDCCCC4C3E00000080BEABAAAA6E
S11300D0AA3E00000000BF000000803F00000000B6
S11300E000084178D3BB4387D1133D190E3CC3BDEF
S11300F04282AD2B3E68EC8276BED98FE1A93E4C9C
S113010080EFFFBE01C4FF7F3F0000000000112408
S11301101FBECFEFD8E0DEBFCDBF11E0A0E0B1E05D
S1130120EAE4F0E102C005900D92A638B107D9F7D0
S113013021E0A6E8B1E001C01D92A139B207E1F7C0
S11301400E949F020C9423080C94000007E004B959
S113015000E005B901B910E007E61093C50000936B
S1130160C40008E10093C10006E00093C20007E860
S113017000937A0000E400937C0000E000937B008D
S11301800EEF00937E000FEF00937F0002E007B9AB
S113019000E008B90E9407010FEF0AB90091860137
S11301A00BB904E005B90E94DC0000E005B90E9427
S11301B0DC000E94010108950AEF1FEF1A95F1F780
S11301C00A95D9F708950E9407010FEF0AB9009123
S11301D086010BB906E005B90E94DC0000E005B910
S11301E00E94DC000E94010108950E94070100E0C2
S11301F00AB945B80BB10093860105B80E94010104
S1130200089502E00AB908E10093C100089500E0EE
S11302100093C10008950091C00007FF0895009164
S1130220C600F9CF0091C00007FFFCCF0091C600C3
S11302300093880108951091C00015FFFCCF009130
S113024088010093C600089507EC00937A0000919A
S11302507A0006FDFCCF0091780000938E01009196
S11302607900009387010895CF93DF93EC0105C0D3
S11302702196809388010E941B0188818111F8CF07
S1130280DF91CF910895CF93DF93EC0105C02196C0
S1130290809386010E94E30088818111F8CFDF9169
S11302A0CF910895CF93DF9384E3809386010E94D6
S11302B0CA0088E0809386010E94CA0082E080938D
S11302C086010E94CA0086E0809386010E94CA00CB
S11302D08FE0809386010E94CA00C4E6D0E010C07B
S11302E088E1809386010E94CA0080E091E00E9428
S11302F043018FE99FE00197F1F700C000002197C7
S1130300209771F7DF91CF9108958F929F92AF92CA
S1130310BF92CF92DF92EF92FF92BC01990F880BAC
S1130320990B0E94BB0323E333E343E550E40E94AB
S1130330970420E030E040E85AE30E9497046B0100
S11303407C0120E030E44CE156E40E9497044B0128
S11303505C01A701960163E373E383E590E40E94E3
S1130360A4029B01AC01C501B4010E94110320E069
S113037030E44CE156E40E9411030E944F0420E053
S113038030EE46E755E40E9411032FE03FEC4BE5C5
S11303905BE30E94A5029B01AC0160E070E080E891
S11303A09FE30E94110323E333E948E853E40E94E6
S11303B0A402FF90EF90DF90CF90BF90AF909F90FA
S11303C08F9008958F929F92AF92BF92CF92DF92B7
S11303D0EF92FF928091870190E0982F88272091D7
S11303E08E01822B0E9485014B015C010E948303D4
S11303F06B017C0180E090E00E94B9039B01AC0199
S1130400C501B4010E94A40220E030E048EC52E4AB
S11304100E9497040E9483037F936F93DF92CF928D
S113042086E091E09F938F9389E891E09F938F9367
S11304300E94390589E891E00E9434018DB79EB786
S113044008960FB6F8949EBF0FBE8DBFFF90EF9035
S1130450DF90CF90BF90AF909F908F90089588B118
S1130460826088B925E32A95F1F7000088B18D7F71
S113047088B9329BFECF80E090E005C0019625E06C
S11304802A95F1F700003299F9CF08950F931F933D
S1130490CF93DF93CDB7DEB72A970FB6F894DEBFBC
S11304A00FBECDBF0E942F029F938F938DE191E0E9
S11304B09F938F938E010F5F1F4F1F930F930E9483
S11304C03905C8010E943401C8010E9443010F90FC
S11304D00F900F900F900F900F902A960FB6F894EC
S11304E0DEBF0FBECDBFDF91CF911F910F91089555
S11304F084E291E00E94430108958EE691E00E9417
S113050034011092880102C00E9412018091880176
S11305108823D1F38C3629F0803749F0813651F4A1
S113052003C00E94520108950E94E20108950E94AE
S1130530460208958FE491E00E94340108950E94D8
S113054078020E947D02FDCF5058BB27AA270E9443
S1130550BC020C940D040E94FF0338F00E940604B0
S113056020F039F49F3F19F426F40C94FC030EF4A4
S1130570E095E7FB0C94F603E92F0E941E0458F360
S1130580BA17620773078407950720F079F4A6F574
S11305900C9440040EF4E0950B2EBA2FA02D0B0101
S11305A0B90190010C01CA01A0011124FF27591BB4
S11305B099F0593F50F4503E68F11A16F040A22FBA
S11305C0232F342F4427585FF3CF4695379527952B
S11305D0A795F0405395C9F77EF41F16BA0B620B2A
S11305E0730B840BBAF09150A1F0FF0FBB1F661F71
S11305F0771F881FC2F70EC0BA0F621F731F841FB4
S113060048F4879577956795B795F7959E3F08F0D9
S1130610B0CF9395880F08F09927EE0F979587959B
S113062008950E9425030C940D040E94060458F0BA
S11306300E94FF0340F029F45F3F29F00C94F60375
S113064051110C9441040C94FC030E941E0468F3A1
S11306509923B1F3552391F3951B550BBB27AA2777
S113066062177307840738F09F5F5F4F220F331FB1
S1130670441FAA1FA9F335D00E2E3AF0E0E832D079
S113068091505040E695001CCAF72BD0FE2F29D07C
S1130690660F771F881FBB1F261737074807AB074E
S11306A0B0E809F0BB0B802DBF01FF2793585F4FC3
S11306B03AF09E3F510578F00C94F6030C944104F3
S11306C05F3FE4F3983ED4F3869577956795B795A5
S11306D0F7959F5FC9F7880F911D9695879597F9B0
S11306E00895E1E0660F771F881FBB1F6217730729
S11306F08407BA0720F0621B730B840BBA0BEE1F3E
S113070088F7E09508950E948A036894B1110C94C7
S1130710410408950E94260488F09F5798F0B92F49
S11307209927B751B0F0E1F0660F771F881F991F22
S11307301AF0BA95C9F714C0B13091F00E94400480
S1130740B1E008950C944004672F782F8827B85F90
S113075039F0B93FCCF3869577956795B395D9F77A
S11307603EF490958095709561957F4F8F4F9F4F84
S11307700895E89409C097FB3EF490958095709590
S113078061957F4F8F4F9F4F9923A9F0F92F96E9D9
S1130790BB279395F695879577956795B795F1114E
S11307A0F8CFFAF4BB0F11F460FF1BC06F5F7F4FEB
S11307B08F4F9F4F16C0882311F096E911C07723FD
S11307C021F09EE8872F762F05C0662371F096E806
S11307D0862F70E060E02AF09A95660F771F881FD5
S11307E0DAF7880F9695879597F9089597F99F6793
S11307F080E870E060E008959FEF80EC08950024A5
S11308000A941616170618060906089500240A9471
S113081012161306140605060895092E0394000CF7
S113082011F4882352F0BB0F40F4BF2B11F460FF86
S113083004C06F5F7F4F8F4F9F4F089557FD9058AF
S1130840440F551F59F05F3F71F04795880F97FB90
S1130850991F61F09F3F79F087950895121613064A
S11308601406551FF2CF4695F1DF08C01616170679
S11308701806991FF1CF86957105610508940895AE
S1130880E894BB2766277727CB0197F9089516F0DC
S11308900C9404050C94FC0368940C94F6030E94D5
S11308A02604A8F39923C1F3AEF3DF93CF931F93E8
S11308B00F93FF92C92FDD2788232AF02197660F13
S11308C0771F881FDAF720E030E040E85FEB9FE312
S11308D0883920F0803E38F021968F770E94A50257
S11308E0E4EBF0E004C00E94A502E1EEF0E00E9417
S11308F012058B01BE01EC01FB2E6F577109759532
S1130900771F880B990B0E94BB0328E132E741E370
S11309105FE30E94AA04AF2D9801AE01FF900F91EE
S11309201F91CF91DF910E94BC020C940D040E9490
S1130930AA040C940D040E94FF0338F00E940604DC
S113094020F0952311F00C94F6030C94FC0311246D
S11309500C9441040E941E0470F3959FC1F3950FFB
S113096050E0551F629FF001729FBB27F00DB11D2F
S1130970639FAA27F00DB11DAA1F649F6627B00DBF
S1130980A11D661F829F2227B00DA11D621F739FA8
S1130990B00DA11D621F839FA00D611D221F749FB6
S11309A03327A00D611D231F849F600D211D822FFD
S11309B0762F6A2F11249F5750409AF0F1F0882324
S11309C04AF0EE0FFF1FBB1F661F771F881F915051
S11309D05040A9F79E3F510580F00C94F6030C9407
S11309E041045F3FE4F3983ED4F386957795679589
S11309F0B795F795E7959F5FC1F7FE2B880F911D7B
S1130A009695879597F908959F3F31F0915020F47A
S1130A10879577956795B795880F911D96958795D6
S1130A2097F90895DF93CF931F930F93FF92EF925B
S1130A30DF927B018C01689406C0DA2EEF010E94DC
S1130A40AA04FE01E894A59125913591459155910B
S1130A50A6F3EF010E94BC02FE019701A801DA94FB
S1130A6069F7DF90EF90FF900F911F91CF91DF9185
S1130A700895AEE0B0E0EFE3F5E00C94FA070D89D9
S1130A801E8986E08C831A8309838FEF9FE79E83F8
S1130A908D83AE01475E5F4F6F89788DCE010196DD
S1130AA00E945B05EF81F885E00FF11F10822E96FE
S1130AB0E4E00C941608ABE0B0E0E1E6F5E00C9459
S1130AC0EC076C017B018A01FC0117821682838189
S1130AD081FFCCC1CE0101963C01F6019381F7015F
S1130AE093FD859193FF81917F01882309F4BAC115
S1130AF0853239F493FD859193FF81917F0185328D
S1130B0029F4B60190E00E945207E7CF912C212CE2
S1130B10312CFFE1F315D8F08B3279F038F48032C0
S1130B2079F08332A1F4232D20611DC08D3261F050
S1130B30803369F4232D216016C0832D8260382E02
S1130B40E32DE4603E2E2AC0F32DF8601DC037FC6F
S1130B502DC020ED280F2A3040F08E32B9F436FC37
S1130B6081C1232D2064322E19C036FE06C08AE0CE
S1130B70989E200D1124922E11C0EAE02E9E200D85
S1130B801124222EF32DF0623F2E08C08C3621F45E
S1130B90832D8068382E02C0883641F4F70193FD16
S1130BA0859193FF81917F018111B3CF982F9F7D10
S1130BB09554933028F40C5F1F4F9FE399830DC025
S1130BC0833631F0833771F0833509F059C021C081
S1130BD0F801808189830E5F1F4F88248394912CB0
S1130BE0530113C02801F2E04F0E511CF801A080FC
S1130BF0B18036FE03C0692D70E002C06FEF7FEF55
S1130C00C5010E9447074C018201F32DFF773F2E57
S1130C1016C0280122E0420E511CF801A080B180C8
S1130C2036FE03C0692D70E002C06FEF7FEFC5018F
S1130C300E943C074C01F32DF0683F2E820133FCE7
S1130C401BC0822D90E088169906B0F4B60180E2AC
S1130C5090E00E9452072A94F4CFF50137FC859165
S1130C6037FE81915F01B60190E00E945207211086
S1130C702A9421E0821A91088114910471F7E8C042
S1130C80843611F0893641F5F80137FE07C06081DA
S1130C907181828193810C5F1F4F08C060817181D3
S1130CA0072E000C880B990B0E5F1F4FF32DFF7658
S1130CB03F2E97FF09C090958095709561957F4F61
S1130CC08F4F9F4FF0683F2E2AE030E0A3010E942F
S1130CD08E07882E861845C0853731F4232D2F7E44
S1130CE0B22E2AE030E025C0932D997FB92E8F369D
S1130CF0C1F018F4883579F0B5C0803719F0883719
S1130D0021F0B0C0E92FE061BE2EB4FE0DC0FB2D72
S1130D10F460BF2E09C034FE0AC0292F2660B22E0B
S1130D2006C028E030E005C020E130E002C020E148
S1130D3032E0F801B7FE07C060817181828193813E
S1130D400C5F1F4F06C06081718180E090E00E5FF0
S1130D501F4FA3010E948E07882E8618FB2DFF7754
S1130D603F2E36FE0DC0232D2E7FA22E891458F45B
S1130D7034FE0BC032FC09C0832D8E7EA82E05C024
S1130D80B82CA32C03C0B82C01C0B92CA4FE0FC0EE
S1130D90FE01E80DF11D8081803321F49A2D997EA6
S1130DA0A92E09C0A2FE06C0B394B39404C08A2D30
S1130DB0867809F0B394A3FC11C0A0FE06C0B21457
S1130DC088F4280C922C9B180EC0B21460F4B6015F
S1130DD080E290E00E945207B394F7CFB21418F463
S1130DE02B1802C0982C212CA4FE10C0B60180E35D
S1130DF090E00E945207A2FE17C0A1FC03C088E73E
S1130E0090E002C088E590E0B6010CC08A2D867897
S1130E1059F0A1FE02C08BE201C080E2A7FC8DE282
S1130E20B60190E00E945207891438F4B60180E3B9
S1130E3090E00E9452079A94F7CF8A94F301E80D48
S1130E40F11D8081B60190E00E9452078110F5CF18
S1130E50222009F442CEB60180E290E00E945207BB
S1130E602A94F6CFF6018681978102C08FEF9FEF17
S1130E702B96E2E10C940808FC0105906150704047
S1130E800110D8F7809590958E0F9F1F0895FC014F
S1130E906150704001900110D8F7809590958E0FA5
S1130EA09F1F08950F931F93CF93DF93FB0123811B
S1130EB021FD03C08FEF9FEF2CC022FF16C0468197
S1130EC05781248135814217530744F4A081B181AD
S1130ED09D012F5F3F4F318320838C93268137817F
S1130EE02F5F3F4F3783268314C08B01EC01FB0136
S1130EF00084F185E02D0995892BE1F6D801169639
S1130F008D919C911797019617969C938E931697A3
S1130F10CE01DF91CF911F910F910895FA01AA2775
S1130F20283051F1203181F1E8946F936E7F6E5F28
S1130F307F4F8F4F9F4FAF4FB1E03ED0B4E03CD0D6
S1130F40670F781F891F9A1FA11D680F791F8A1FB9
S1130F50911DA11D6A0F711D811D911DA11D20D020
S1130F6009F468943F912AE0269F11243019305DDA
S1130F703193DEF6CF010895462F4770405D4193CB
S1130F80B3E00FD0C9F7F6CF462F4F70405D4A3318
S1130F9018F0495D31FD4052419302D0A9F7EACFE0
S1130FA0B4E0A6959795879577956795BA95C9F70F
S1130FB000976105710508959B01AC010A2E069402
S1130FC05795479537952795BA95C9F7620F731FBB
S1130FD0841F951FA01D08952F923F924F925F92F8
S1130FE06F927F928F929F92AF92BF92CF92DF9235
S1130FF0EF92FF920F931F93CF93DF93CDB7DEB79A
S1131000CA1BDB0B0FB6F894DEBF0FBECDBF09942D
S11310102A88398848885F846E847D848C849B8484
S1131020AA84B984C884DF80EE80FD800C811B8192
S1131030AA81B981CE0FD11D0FB6F894DEBF0FBEC1
S10D1040CDBFED010895F894FFCF31
S113104A48656C6C6F0025642E256420646567729C
S113105A6565732043656C736975730A002564209A
S113106A636D0A000D0A46696E616C2050726F6ADC
S113107A656374202D20446965676F2C204A656E68
S113108A657274682C20526F78616E610A0D000DC6
S113109A0A496E76616C696420436F6D6D616E6492
S11310AA2054727920416761696E2E2E2E000D0A32
S11310BA4D656E753A20284C2943442C2028412931
S10910CA44430A0D00007E
S9030000FC
