S014000046696E616C50726F6A6563742E737265634F
S11300000C9487000C94A4000C94A4000C94A400F9
S11300100C94E4010C94A4000C94A4000C94A4008B
S11300200C94A4000C94A4000C94A4000C94A400BC
S11300300C94A4000C9412020C94A4000C94A4003C
S11300400C94A4000C94A4000C94A4000C94A4009C
S11300500C94A4000C94A4000C94A4000C94A4008C
S11300600C94A4000C94A4000C94A4000C94A4007C
S11300700C94A4000C94A4000C94A4000C94A4006C
S11300800C94A4000C94A4000C94A4000C94A4005C
S11300900C94A4000C94A4000C94A4000C94A4004C
S11300A00C94A4000C94A4000C94A4000C94A4003C
S11300B00C94A40008000000BE922449123EABAA8E
S11300C0AA2ABECDCCCC4C3E00000080BEABAAAA6E
S11300D0AA3E00000000BF000000803F00000000B6
S11300E000084178D3BB4387D1133D190E3CC3BDEF
S11300F04282AD2B3E68EC8276BED98FE1A93E4C9C
S113010080EFFFBE01C4FF7F3F0000000000112408
S11301101FBECFEFD8E0DEBFCDBF12E0A0E0B1E05C
S1130120ECE7F4E102C005900D92A235B107D9F7CE
S113013022E0A2E5B2E001C01D92A136B207E1F7C8
S11301400E9464040C943C0A0C94000007E004B977
S113015000E005B901B910E007E61093C50000936B
S1130160C40008E10093C10006E00093C20007E860
S113017000937A0000E400937C0000E000937B008D
S11301800EEF00937E000FEF00937F0002E007B9AB
S113019000E008B90E9407010FEF0AB9009152026A
S11301A00BB904E005B90E94DC0000E005B90E9427
S11301B0DC000E94010108950AEF1FEF1A95F1F780
S11301C00A95D9F708950E9407010FEF0AB9009123
S11301D052020BB906E005B90E94DC0000E005B943
S11301E00E94DC000E94010108950E94070100E0C2
S11301F00AB945B80BB10093520205B80E94010137
S1130200089502E00AB908E10093C100089500E0EE
S11302100093C10008950091C00007FF0895009164
S1130220C600F9CF0091C00007FFFCCF0091C600C3
S11302300093580208951091C00015FFFCCF00915F
S113024058020093C600089507EC00937A000091C9
S11302507A0006FDFCCF0091780000935E020091C5
S1130260790000935302089510928100EFE6F0E0C4
S113027080818E7F8083E8E6F0E080818D7F8083BB
S11302800895CF93DF93EC0105C021968093580223
S11302900E941B0188818111F8CFDF91CF910895CD
S11302A08F929F92AF92BF92CF92DF92EF92FF9282
S11302B00F931F93CF93DF93CDB7DEB764970FB639
S11302C0F894DEBF0FBECDBF2DEB37E346E855E310
S11302D00E9464064B015C0184E1E0E0F1E0DE0190
S11302E0119601900D928A95E1F700E010E035C077
S11302F020E034E244E75BE4C501B4010E946406F3
S1130300F801EE0FFF1FEE0FFF1F21E030E02C0F6E
S11303103D1FE20FF31FC080D180E280F380A7016C
S113032096010E94D9049B01AC0160E070E080E872
S113033097E40E946C0420E030E0A9010E940F06BB
S113034088234CF0C0925402D0925502E092560297
S1130350F092570205C00F5F1F4F0530110544F29C
S11303601092850010928400109280000F5F009319
S1130370810081E080936F0082E08093680084E0D4
S113038080936C000AC084E191E00E94410135E34E
S11303903A95F1F7000082E08BBB809181008111D6
S11303A0F2CF64960FB6F894DEBF0FBECDBFDF91D7
S11303B0CF911F910F91FF90EF90DF90CF90BF905E
S11303C0AF909F908F9008951F920F920FB60F9247
S11303D011242F933F934F935F936F937F938F9346
S11303E09F93AF93BF93EF93FF9380E291E00E94BA
S11303F04101329906C082E391E00E9441010E94CA
S11304003401FF91EF91BF91AF919F918F917F91B3
S11304106F915F914F913F912F910F900FBE0F906D
S11304201F9018951F920F920FB60F9211242F93BD
S11304303F934F935F936F937F938F939F93AF9368
S1130440BF93EF93FF9387E491E00E9441010E94E0
S11304503401FF91EF91BF91AF919F918F917F9163
S11304606F915F914F913F912F910F900FBE0F901D
S11304701F901895CF93DF93EC0105C021968093CC
S113048052020E94E30088818111F8CFDF91CF915D
S1130490089588E3809352020E94CA008EE08093FC
S11304A052020E94CA0081E0809352020E94CA0054
S11304B08DE591E00E943A0208958F929F92AF9247
S11304C0BF92CF92DF92EF92FF92BC01990F880BFB
S11304D0990B0E94830523E333E343E550E40E9430
S11304E0640620E030E040E85AE30E9464066B01B1
S11304F07C0120E030E44CE156E40E9464064B01A8
S11305005C01A701960163E373E383E590E40E9431
S11305106C049B01AC01C501B4010E94D90420E024
S113052030E44CE156E40E94D9040E941C0620E009
S113053030EE46E755E40E94D9042FE03FEC4BE54A
S11305405BE30E946D049B01AC0160E070E080E815
S11305509FE30E94D90423E333E948E853E40E946B
S11305606C04FF90EF90DF90CF90BF90AF909F907E
S11305708F9008958F929F92AF92BF92CF92DF9205
S1130580EF92FF920F931F93CF93DF93C9E5D2E0CD
S11305908EE2898380E28B831C820E942401E09195
S11305A05302F0E03E2F222700915E0210E0200F5C
S11305B0311FC901880F991F220F331F220F331FC8
S11305C0220F331F820F931F2EEF37E0B9010E94D1
S11305D02A0740E3460F4883BC01660F771F880F44
S11305E0991F880F991F880F991F860F971FB901AC
S11305F00E942A07605D6A839093600280935F0281
S11306008F3F93401CF06F5F60935B0280915B02AD
S11306108A3341F4A9E5B2E080E312968C931297F1
S11306204F5F4C939E2F8827802B912B0E945D0255
S11306304B015C010E944B056B017C0180E090E062
S11306400E9481059B01AC01C501B4010E946C04A8
S113065020E030E048EC52E40E9464060E944B051E
S11306607F936F93DF92CF9286E691E09F938F936F
S113067089E592E09F938F930E94520789E592E067
S11306800E9441018DB79EB708960FB6F8949EBF9D
S11306900FBE8DBFDF91CF911F910F91FF90EF900F
S11306A0DF90CF90BF90AF909F908F9008954F921E
S11306B05F926F927F928F929F92AF92BF92CF92EE
S11306C0DF92EF92FF920F931F93CF93DF93CDB7F7
S11306D0DEB76C970FB6F894DEBF0FBECDBF8DE7C3
S11306E091E00E94410188B1826088B985E38A95CE
S11306F0F1F7000088B18D7F88B960E070E08AEF7F
S113070094E40E945001609184007091850080E01F
S113071090E00E948105209154023091550240914D
S11307205602509157020E94640620E034E244E7E6
S11307305BE40E94D90420E030E04AE754E40E94DC
S113074064066B017C0120E030E84BEA53E40E942C
S1130750640620E030E040E05FE30E94640620E0AD
S113076030E048EC52E40E94D9044B015C01409013
S1130770540250905502609056027090570220E047
S113078030E048EC52E4C701B6010E9464066B01F4
S11307907C01C301B2010E944B057F936F93C70193
S11307A0B6010E944B057F936F9385E991E09F9377
S11307B08F938E010F5F1F4F1F930F930E94520759
S11307C0C8010E9441018BEB91E00E9441010FB6E8
S11307D0F894DEBF0FBECDBFC501B4016C960FB651
S11307E0F894DEBF0FBECDBFDF91CF911F910F9163
S11307F0FF90EF90DF90CF90BF90AF909F908F903D
S11308007F906F905F904F9008950F931F93CF93B5
S1130810DF93CDB7DEB76C970FB6F894DEBF0FBE8B
S1130820CDBF0E9457030E944B057F936F9382EDC7
S113083091E09F938F938E010F5F1F4F1F930F9330
S11308400E945207C8010E944101C8010E943A0255
S11308500F900F900F900F900F900F906C960FB613
S1130860F894DEBF0FBECDBFDF91CF911F910F91E2
S1130870089584EE91E00E943A0284EE91E00E9491
S1130880410108958EE292E00E94410110925802C3
S113089002C00E941201809158028823D1F38C3641
S11308A029F0803749F0813651F403C00E9449028F
S11308B008950E94BA0208950E94050408958FE0E5
S11308C092E00E94410108950E94A6000E9439040A
S11308D078940E944204FDCF5058BB27AA270E9457
S11308E084040C94D5050E94C70538F00E94CE05F7
S11308F020F039F49F3F19F426F40C94C4050EF447
S1130900E095E7FB0C94BE05E92F0E94E60558F339
S1130910BA17620773078407950720F079F4A6F5E0
S11309200C9408060EF4E0950B2EBA2FA02D0B01A3
S1130930B90190010C01CA01A0011124FF27591B20
S113094099F0593F50F4503E68F11A16F040A22F26
S1130950232F342F4427585FF3CF46953795279597
S1130960A795F0405395C9F77EF41F16BA0B620B96
S1130970730B840BBAF09150A1F0FF0FBB1F661FDD
S1130980771F881FC2F70EC0BA0F621F731F841F20
S113099048F4879577956795B795F7959E3F08F046
S11309A0B0CF9395880F08F09927EE0F9795879508
S11309B008950E94ED040C94D5050E94CE0558F0CC
S11309C00E94C70540F029F45F3F29F00C94BE054E
S11309D051110C9409060C94C4050E94E60568F3B1
S11309E09923B1F3552391F3951B550BBB27AA27E4
S11309F062177307840738F09F5F5F4F220F331F1E
S1130A00441FAA1FA9F335D00E2E3AF0E0E832D0E5
S1130A1091505040E695001CCAF72BD0FE2F29D0E8
S1130A20660F771F881FBB1F261737074807AB07BA
S1130A30B0E809F0BB0B802DBF01FF2793585F4F2F
S1130A403AF09E3F510578F00C94BE050C940906CB
S1130A505F3FE4F3983ED4F3869577956795B79511
S1130A60F7959F5FC9F7880F911D9695879597F91C
S1130A700895E1E0660F771F881FBB1F6217730795
S1130A808407BA0720F0621B730B840BBA0BEE1FAA
S1130A9088F7E09508950E9452056894B1110C946A
S1130AA0090608950E94EE0588F09F5798F0B92F23
S1130AB09927B751B0F0E1F0660F771F881F991F8F
S1130AC01AF0BA95C9F714C0B13091F00E94080623
S1130AD0B1E008950C940806672F782F8827B85F33
S1130AE039F0B93FCCF3869577956795B395D9F7E7
S1130AF03EF490958095709561957F4F8F4F9F4FF1
S1130B000895E89409C097FB3EF4909580957095FC
S1130B1061957F4F8F4F9F4F9923A9F0F92F96E945
S1130B20BB279395F695879577956795B795F111BA
S1130B30F8CFFAF4BB0F11F460FF1BC06F5F7F4F57
S1130B408F4F9F4F16C0882311F096E911C0772369
S1130B5021F09EE8872F762F05C0662371F096E872
S1130B60862F70E060E02AF09A95660F771F881F41
S1130B70DAF7880F9695879597F9089597F99F67FF
S1130B8080E870E060E008959FEF80EC0895002411
S1130B900A941616170618060906089500240A94DE
S1130BA012161306140605060895092E0394000C64
S1130BB011F4882352F0BB0F40F4BF2B11F460FFF3
S1130BC004C06F5F7F4F8F4F9F4F089557FD90581C
S1130BD0440F551F59F05F3F71F04795880F97FBFD
S1130BE0991F61F09F3F79F08795089512161306B7
S1130BF01406551FF2CF4695F1DF08C016161706E6
S1130C001806991FF1CF869571056105089408951A
S1130C10E894BB2766277727CB0197F908950E94AC
S1130C20D10608F48FEF089516F00C94F5060C9491
S1130C30C40568940C94BE050E94EE05A8F399239C
S1130C40C1F3AEF3DF93CF931F930F93FF92C92F9A
S1130C50DD2788232AF02197660F771F881FDAF78C
S1130C6020E030E040E85FEB9FE3883920F0803EED
S1130C7038F021968F770E946D04E4EBF0E004C015
S1130C800E946D04E1EEF0E00E9403078B01BE01B7
S1130C90EC01FB2E6F5771097595771F880B990B23
S1130CA00E94830528E132E741E35FE30E9477066F
S1130CB0AF2D9801AE01FF900F911F91CF91DF915D
S1130CC00E9484040C94D5050E9477060C94D505E3
S1130CD00E94C70538F00E94CE0520F0952311F03C
S1130CE00C94BE050C94C40511240C9409060E94AE
S1130CF0E60570F3959FC1F3950F50E0551F629F71
S1130D00F001729FBB27F00DB11D639FAA27F00D60
S1130D10B11DAA1F649F6627B00DA11D661F829F87
S1130D202227B00DA11D621F739FB00DA11D621F6C
S1130D30839FA00D611D221F749F3327A00D611D89
S1130D40231F849F600D211D822F762F6A2F11246B
S1130D509F5750409AF0F1F088234AF0EE0FFF1F9E
S1130D60BB1F661F771F881F91505040A9F79E3FF5
S1130D70510580F00C94BE050C9409065F3FE4F322
S1130D80983ED4F3869577956795B795F795E7954B
S1130D909F5FC1F7FE2B880F911D9695879597F954
S1130DA00895990F0008550FAA0BE0E8FEEF1616F8
S1130DB01706E807F907C0F012161306E407F5074B
S1130DC098F0621B730B840B950B39F40A2661F0BF
S1130DD0232B242B252B21F408950A2609F4A14062
S1130DE0A6958FEF811D811D08959F3F31F091508D
S1130DF020F4879577956795B795880F911D9695FB
S1130E00879597F90895DF93CF931F930F93FF92DC
S1130E10EF92DF927B018C01689406C0DA2EEF0119
S1130E200E947706FE01E894A5912591359145919C
S1130E305591A6F3EF010E948404FE019701A801D5
S1130E40DA9469F7DF90EF90FF900F911F91CF91A3
S1130E50DF91089597FB072E16F4009407D077FDD1
S1130E6009D00E943E0707FC05D03EF49095819579
S1130E709F4F0895709561957F4F0895AA1BBB1BE2
S1130E8051E107C0AA1FBB1FA617B70710F0A61B86
S1130E90B70B881F991F5A95A9F780959095BC01A7
S1130EA0CD010895AEE0B0E0E8E5F7E00C94130A54
S1130EB00D891E8986E08C831A8309838FEF9FE74F
S1130EC09E838D83AE01475E5F4F6F89788DCE011F
S1130ED001960E947407EF81F885E00FF11F1082DC
S1130EE02E96E4E00C942F0AABE0B0E0EAE7F7E0DA
S1130EF00C94050A6C017B018A01FC01178216829D
S1130F00838181FFCCC1CE0101963C01F60193811E
S1130F10F70193FD859193FF81917F01882309F463
S1130F20BAC1853239F493FD859193FF81917F0194
S1130F30853229F4B60190E00E946B09E7CF912C29
S1130F40212C312CFFE1F315D8F08B3279F038F4F1
S1130F50803279F08332A1F4232D20611DC08D32BB
S1130F6061F0803369F4232D216016C0832D8260E3
S1130F70382EE32DE4603E2E2AC0F32DF8601DC008
S1130F8037FC2DC020ED280F2A3040F08E32B9F402
S1130F9036FC81C1232D2064322E19C036FE06C0D2
S1130FA08AE0989E200D1124922E11C0EAE02E9E14
S1130FB0200D1124222EF32DF0623F2E08C08C3612
S1130FC021F4832D8068382E02C0883641F4F7015D
S1130FD093FD859193FF81917F018111B3CF982F68
S1130FE09F7D9554933028F40C5F1F4F9FE39983A2
S1130FF00DC0833631F0833771F0833509F059C061
S113100021C0F801808189830E5F1F4F8824839457
S1131010912C530113C02801F2E04F0E511CF8012A
S1131020A080B18036FE03C0692D70E002C06FEF6E
S11310307FEFC5010E9460094C018201F32DFF7707
S11310403F2E16C0280122E0420E511CF801A08058
S1131050B18036FE03C0692D70E002C06FEF7FEFF0
S1131060C5010E9455094C01F32DF0683F2E820101
S113107033FC1BC0822D90E088169906B0F4B601AB
S113108080E290E00E946B092A94F4CFF50137FCCA
S1131090859137FE81915F01B60190E00E946B0952
S11310A021102A9421E0821A91088114910471F785
S11310B0E8C0843611F0893641F5F80137FE07C0DF
S11310C060817181828193810C5F1F4F08C06081B0
S11310D07181072E000C880B990B0E5F1F4FF32DA7
S11310E0FF763F2E97FF09C0909580957095619586
S11310F07F4F8F4F9F4FF0683F2E2AE030E0A301CF
S11311000E94A709882E861845C0853731F4232DFF
S11311102F7EB22E2AE030E025C0932D997FB92E80
S11311208F36C1F018F4883579F0B5C0803719F0DE
S1131130883721F0B0C0E92FE061BE2EB4FE0DC0A7
S1131140FB2DF460BF2E09C034FE0AC0292F26608F
S1131150B22E06C028E030E005C020E130E002C035
S113116020E132E0F801B7FE07C06081718182811D
S113117093810C5F1F4F06C06081718180E090E015
S11311800E5F1F4FA3010E94A709882E8618FB2D0E
S1131190FF773F2E36FE0DC0232D2E7FA22E8914FD
S11311A058F434FE0BC032FC09C0832D8E7EA82E69
S11311B005C0B82CA32C03C0B82C01C0B92CA4FEC4
S11311C00FC0FE01E80DF11D8081803321F49A2DBA
S11311D0997EA92E09C0A2FE06C0B394B39404C09C
S11311E08A2D867809F0B394A3FC11C0A0FE06C032
S11311F0B21488F4280C922C9B180EC0B21460F41C
S1131200B60180E290E00E946B09B394F7CFB21468
S113121018F42B1802C0982C212CA4FE10C0B6017F
S113122080E390E00E946B09A2FE17C0A1FC03C0FA
S113123088E790E002C088E590E0B6010CC08A2DF2
S1131240867859F0A1FE02C08BE201C080E2A7FCBF
S11312508DE2B60190E00E946B09891438F4B6015E
S113126080E390E00E946B099A94F7CF8A94F3018B
S1131270E80DF11D8081B60190E00E946B09811098
S1131280F5CF222009F442CEB60180E290E00E941C
S11312906B092A94F6CFF6018681978102C08FEFFD
S11312A09FEF2B96E2E10C94210AFC01059061501A
S11312B070400110D8F7809590958E0F9F1F089568
S11312C0FC016150704001900110D8F78095909511
S11312D08E0F9F1F08950F931F93CF93DF93FB01EE
S11312E0238121FD03C08FEF9FEF2CC022FF16C086
S11312F046815781248135814217530744F4A081E4
S1131300B1819D012F5F3F4F318320838C932681D0
S113131037812F5F3F4F3783268314C08B01EC0145
S1131320FB010084F185E02D0995892BE1F6D801B4
S113133016968D919C911797019617969C938E9370
S11313401697CE01DF91CF911F910F910895FA0165
S1131350AA27283051F1203181F1E8946F936E7FF0
S11313606E5F7F4F8F4F9F4FAF4FB1E03ED0B4E0E1
S11313703CD0670F781F891F9A1FA11D680F791F22
S11313808A1F911DA11D6A0F711D811D911DA11D33
S113139020D009F468943F912AE0269F1124301943
S11313A0305D3193DEF6CF010895462F4770405DDE
S11313B04193B3E00FD0C9F7F6CF462F4F70405D8D
S11313C04A3318F0495D31FD4052419302D0A9F7E8
S11313D0EACFB4E0A6959795879577956795BA95E2
S11313E0C9F700976105710508959B01AC010A2EA8
S11313F006945795479537952795BA95C9F7620F7F
S1131400731F841F951FA01D08952F923F924F9222
S11314105F926F927F928F929F92AF92BF92CF9280
S1131420DF92EF92FF920F931F93CF93DF93CDB789
S1131430DEB7CA1BDB0B0FB6F894DEBF0FBECDBF01
S113144009942A88398848885F846E847D848C84D2
S11314509B84AA84B984C884DF80EE80FD800C81DB
S11314601B81AA81B981CE0FD11D0FB6F894DEBFBE
S10F14700FBECDBFED010895F894FFCF2E
S113147C0000803F000000410000804200008043D7
S113148C0000804464656C6179696E672E2E2E00B1
S113149C6563686F20696E74657272757074200A66
S11314AC0D00414E44204543484F2057454E54208F
S11314BC4C4F57200A0D006F766572666C6F77205F
S11314CC696E74657272757074200A0D007465739C
S11314DC74206C63640025642E2564206465677233
S11314EC6565732043656C736975730A0073746165
S11314FC7274696E672074726967676572207069AB
S113150C6E670A0D0054696D6520706173736564B0
S113151C3A202564207573200A0D5072657363613B
S113152C6C65723A202564200A0D00646973746139
S113153C6E63652063616C63756C61746564200A09
S113154C0D0064697374616E6365203D202564200D
S113155C636D0A000D0A46696E616C2050726F6AE5
S113156C656374202D20446965676F2C204A656E71
S113157C657274682C20526F78616E610A0D000DCF
S113158C0A496E76616C696420436F6D6D616E649B
S113159C2054727920416761696E2E2E2E000D0A3B
S11315AC4D656E753A20284C2943442C202841293A
S11315BC44432C20285029696E67205553530A0D37
S10515CC000019
S9030000FC
