:100000000C9487000C94A4000C94A4000C94A400FD
:100010000C94F3010C94A4000C94A4000C94A40080
:100020000C94A4000C94A4000C94A4000C94A400C0
:100030000C94A4000C9426020C94A4000C94A4002C
:100040000C94A4000C94A4000C94A4000C94A400A0
:100050000C94A4000C94A4000C94A4000C94A40090
:100060000C94A4000C94A4000C94A4000C94A40080
:100070000C94A4000C94A4000C94A4000C94A40070
:100080000C94A4000C94A4000C94A4000C94A40060
:100090000C94A4000C94A4000C94A4000C94A40050
:1000A0000C94A4000C94A4000C94A4000C94A40040
:1000B0000C94A40008000000BE922449123EABAA92
:1000C000AA2ABECDCCCC4C3E00000080BEABAAAA72
:1000D000AA3E00000000BF000000803F00000000BA
:1000E00000084178D3BB4387D1133D190E3CC3BDF3
:1000F0004282AD2B3E68EC8276BED98FE1A93E4CA0
:1001000080EFFFBE01C4FF7F3F000000000011240C
:100110001FBECFEFD8E0DEBFCDBF12E0A0E0B1E060
:10012000E4EEF3E102C005900D92AE31B107D9F7CC
:1001300022E0AEE1B2E001C01D92AD32B207E1F7BC
:100140000E9418040C94F0090C94000007E004B914
:1001500000E005B901B910E007E61093C50000936F
:10016000C40008E10093C10006E00093C20007E864
:1001700000937A0000E400937C0000E000937B0091
:100180000EEF00937E000FEF00937F0002E007B9AF
:1001900004E018B1102B18B900E008B90E940B0157
:1001A0000FEF0AB900911E020BB904E005B90E94D5
:1001B000E00000E005B90E94E0000E9405010895FA
:1001C0000AEF1FEF1A95F1F70A95D9F708950E94E3
:1001D0000B010FEF0AB900911E020BB906E005B939
:1001E0000E94E00000E005B90E94E0000E940501C5
:1001F00008950E940B0100E00AB945B80BB10093C5
:100200001E0205B80E940501089502E00AB908E13E
:100210000093C100089500E00093C100089500918B
:10022000C00007FF08950091C600F9CF0091C000FB
:1002300007FFFCCF0091C60000932402089510919F
:10024000C00015FFFCCF009124020093C600089562
:1002500007EC00937A0000917A0006FDFCCF009134
:10026000780000932A020091790000931F020895FC
:100270008F929F92AF92BF92CF92DF92EF92FF92B6
:100280000F931F93CF93DF93CDB7DEB764970FB66D
:10029000F894DEBF0FBECDBF2DEB37E346E855E344
:1002A0000E9418064B015C0184E1E0E0F1E0DE0110
:1002B000119601900D928A95E1F700E010E035C0AB
:1002C00020E034E244E75BE4C501B4010E94180673
:1002D000F801EE0FFF1FEE0FFF1F21E030E02C0FA3
:1002E0003D1FE20FF31FC080D180E280F380A701A1
:1002F00096010E948D049B01AC0160E070E080E8F3
:1003000097E40E94200420E030E0A9010E94C30588
:1003100088234CF0C0922002D0922102E092220267
:10032000F092230205C00F5F1F4F0530110544F204
:1003300020E034E244E75BE4C501B4010E94180602
:10034000F801EE0FFF1FEE0FFF1F21E030E02C0F32
:100350003D1FE20FF31F20813181428153810E94B2
:100360008D049B01AC0160E070E080E897E40E949E
:1003700020040E940605709385006093840010920B
:1003800080000F5F0093810081E080936F0082E026
:100390008093680084E080936C00809181008111DB
:1003A000FCCF64960FB6F894DEBF0FBECDBFDF91D1
:1003B000CF911F910F91FF90EF90DF90CF90BF9062
:1003C000AF909F908F900895CF93DF93EC0105C07D
:1003D0002196809324020E941F0188818111F8CF09
:1003E000DF91CF9108951F920F920FB60F921124B3
:1003F0002F933F934F935F936F937F938F939F932D
:10040000AF93BF93EF93FF9384E191E00E94E401E7
:1004100032990BC086E291E00E94E40110928100C3
:10042000E8E6F0E080818D7F8083FF91EF91BF91BE
:10043000AF919F918F917F916F915F914F913F917C
:100440002F910F900FBE0F901F9018951F920F9233
:100450000FB60F9211242F933F934F935F936F9397
:100460007F938F939F93AF93BF93EF93FF938BE310
:1004700091E00E94E40110928100EFE6F0E08081BB
:100480008E7F8083FF91EF91BF91AF919F918F916C
:100490007F916F915F914F913F912F910F900FBE80
:1004A0000F901F901895CF93DF93EC0105C0219614
:1004B00080931E020E94E70088818111F8CFDF91AE
:1004C000CF91089588E380931E020E94CE008EE0B3
:1004D00080931E020E94CE0081E080931E020E9443
:1004E000CE0081E591E00E94530208958F929F9281
:1004F000AF92BF92CF92DF92EF92FF92BC01990F21
:10050000880B990B0E94370523E333E343E550E45E
:100510000E94180620E030E040E85AE30E941806E6
:100520006B017C0120E030E44CE156E40E941806A7
:100530004B015C01A701960163E373E383E590E45B
:100540000E9420049B01AC01C501B4010E948D04EE
:1005500020E030E44CE156E40E948D040E94D00576
:1005600020E030EE46E755E40E948D042FE03FEC9A
:100570004BE55BE30E9421049B01AC0160E070E06D
:1005800080E89FE30E948D0423E333E948E853E4C5
:100590000E942004FF90EF90DF90CF90BF90AF902B
:1005A0009F908F9008958F929F92AF92BF92CF921B
:1005B000DF92EF92FF920F931F93CF93DF93C5E2E9
:1005C000D2E08EE2898380E28B831C820E94280124
:1005D000E0911F02F0E03E2F222700912A0210E056
:1005E000200F311FC901880F991F220F331F220FBF
:1005F000331F220F331F820F931F2EEF37E0B901F5
:100600000E94DE0640E3460F4883BC01660F771F59
:10061000880F991F880F991F880F991F860F971FA2
:10062000B9010E94DE06605D6A8390932C0280937C
:100630002B028F3F93401CF06F5F609327028091E5
:1006400027028A3341F4A5E2B2E080E312968C934C
:1006500012974F5F4C939E2F8827802B912B0E94DF
:1006600076024B015C010E94FF046B017C0180E07B
:1006700090E00E9435059B01AC01C501B4010E94C8
:10068000200420E030E048EC52E40E9418060E946A
:10069000FF047F936F93DF92CF928AE591E09F935F
:1006A0008F9385E292E09F938F930E94060785E2E5
:1006B00092E00E94E4018DB79EB708960FB6F894B9
:1006C0009EBF0FBE8DBFDF91CF911F910F91FF9005
:1006D000EF90DF90CF90BF90AF909F908F90089554
:1006E000CF92DF92EF92FF9281E791E00E94E401C6
:1006F00088B1826088B985E38A95F1F7000088B1F6
:100700008D7F88B960E07BE187E39AE40E9438013D
:10071000609184007091850080E090E00E94350532
:100720002091200230912102409122025091230217
:100730000E94180620E034E244E75BE40E948D0446
:1007400020E03CEF45E057E40E94180620E030E04E
:1007500040E05FE30E9418066B017C0189E891E0AC
:100760000E94E401C701B601FF90EF90DF90CF90A7
:1007700008950F931F93CF93DF93CDB7DEB76C9798
:100780000FB6F894DEBF0FBECDBF0E9470030E946B
:10079000FF047F936F938FE991E09F938F938E0176
:1007A0000F5F1F4F1F930F930E940607C8010E94FF
:1007B000E401C8010E9453020F900F900F900F9018
:1007C0000F900F906C960FB6F894DEBF0FBECDBFA2
:1007D000DF91CF911F910F91089581EB91E00E94DD
:1007E000530281EB91E00E94E40108958BEF91E0C8
:1007F0000E94E4011092240202C00E94160180911E
:1008000024028823D1F38C3629F0803749F08136D1
:1008100051F403C00E94620208950E94D302089519
:100820000E94B90308958CED91E00E94E4010895BF
:100830000E94A6000E94ED0378940E94F603FDCF6B
:100840005058BB27AA270E9438040C9489050E949F
:100850007B0538F00E94820520F039F49F3F19F49F
:1008600026F40C9478050EF4E095E7FB0C947205E1
:10087000E92F0E949A0558F3BA1762077307840795
:10088000950720F079F4A6F50C94BC050EF4E095DC
:100890000B2EBA2FA02D0B01B90190010C01CA013A
:1008A000A0011124FF27591B99F0593F50F4503EE5
:1008B00068F11A16F040A22F232F342F4427585FD7
:1008C000F3CF469537952795A795F0405395C9F7EF
:1008D0007EF41F16BA0B620B730B840BBAF09150A7
:1008E000A1F0FF0FBB1F661F771F881FC2F70EC046
:1008F000BA0F621F731F841F48F487957795679519
:10090000B795F7959E3F08F0B0CF9395880F08F004
:100910009927EE0F9795879508950E94A1040C944E
:1009200089050E94820558F00E947B0540F029F459
:100930005F3F29F00C94720551110C94BD050C9485
:1009400078050E949A0568F39923B1F3552391F332
:10095000951B550BBB27AA2762177307840738F02E
:100960009F5F5F4F220F331F441FAA1FA9F335D08B
:100970000E2E3AF0E0E832D091505040E695001C3F
:10098000CAF72BD0FE2F29D0660F771F881FBB1FF9
:10099000261737074807AB07B0E809F0BB0B802DD7
:1009A000BF01FF2793585F4F3AF09E3F510578F003
:1009B0000C9472050C94BD055F3FE4F3983ED4F3AC
:1009C000869577956795B795F7959F5FC9F7880FD7
:1009D000911D9695879597F90895E1E0660F771F29
:1009E000881FBB1F621773078407BA0720F0621BBA
:1009F000730B840BBA0BEE1F88F7E09508950E94E5
:100A000006056894B1110C94BD0508950E94A205D5
:100A100088F09F5798F0B92F9927B751B0F0E1F0BF
:100A2000660F771F881F991F1AF0BA95C9F714C06F
:100A3000B13091F00E94BC05B1E008950C94BC0562
:100A4000672F782F8827B85F39F0B93FCCF38695A8
:100A500077956795B395D9F73EF490958095709505
:100A600061957F4F8F4F9F4F0895E89409C097FB82
:100A70003EF490958095709561957F4F8F4F9F4F75
:100A80009923A9F0F92F96E9BB279395F6958795B9
:100A900077956795B795F111F8CFFAF4BB0F11F47C
:100AA00060FF1BC06F5F7F4F8F4F9F4F16C0882323
:100AB00011F096E911C0772321F09EE8872F762F59
:100AC00005C0662371F096E8862F70E060E02AF09A
:100AD0009A95660F771F881FDAF7880F9695879586
:100AE00097F9089597F99F6780E870E060E00895AE
:100AF0009FEF80EC089500240A9416161706180636
:100B00000906089500240A94121613061406050611
:100B10000895092E0394000C11F4882352F0BB0FA2
:100B200040F4BF2B11F460FF04C06F5F7F4F8F4F05
:100B30009F4F089557FD9058440F551F59F05F3F40
:100B400071F04795880F97FB991F61F09F3F79F0EF
:100B500087950895121613061406551FF2CF469571
:100B6000F1DF08C0161617061806991FF1CF8695F3
:100B70007105610508940895E894BB2766277727D7
:100B8000CB0197F908950E94850608F48FEF089528
:100B900016F00C94A9060C94780568940C947205D0
:100BA0000E94A205A8F39923C1F3AEF3DF93CF937C
:100BB0001F930F93FF92C92FDD2788232AF02197D7
:100BC000660F771F881FDAF720E030E040E85FEB20
:100BD0009FE3883920F0803E38F021968F770E947D
:100BE0002104E4EBF0E004C00E942104E1EEF0E017
:100BF0000E94B7068B01BE01EC01FB2E6F577109F5
:100C00007595771F880B990B0E94370528E132E70D
:100C100041E35FE30E942B06AF2D9801AE01FF90E8
:100C20000F911F91CF91DF910E9438040C94890598
:100C30000E942B060C9489050E947B0538F00E94C7
:100C4000820520F0952311F00C9472050C94780520
:100C500011240C94BD050E949A0570F3959FC1F371
:100C6000950F50E0551F629FF001729FBB27F00D5A
:100C7000B11D639FAA27F00DB11DAA1F649F6627AF
:100C8000B00DA11D661F829F2227B00DA11D621FFE
:100C9000739FB00DA11D621F839FA00D611D221FB8
:100CA000749F3327A00D611D231F849F600D211D9C
:100CB000822F762F6A2F11249F5750409AF0F1F01F
:100CC00088234AF0EE0FFF1FBB1F661F771F881F88
:100CD00091505040A9F79E3F510580F00C94720549
:100CE0000C94BD055F3FE4F3983ED4F38695779569
:100CF0006795B795F795E7959F5FC1F7FE2B880F2E
:100D0000911D9695879597F90895990F0008550FAD
:100D1000AA0BE0E8FEEF16161706E807F907C0F081
:100D200012161306E407F50798F0621B730B840B89
:100D3000950B39F40A2661F0232B242B252B21F463
:100D400008950A2609F4A140A6958FEF811D811D03
:100D500008959F3F31F0915020F4879577956795DE
:100D6000B795880F911D9695879597F90895DF930C
:100D7000CF931F930F93FF92EF92DF927B018C0131
:100D8000689406C0DA2EEF010E942B06FE01E8945B
:100D9000A5912591359145915591A6F3EF010E94BA
:100DA0003804FE019701A801DA9469F7DF90EF900B
:100DB000FF900F911F91CF91DF91089597FB072E20
:100DC00016F4009407D077FD09D00E94F20607FCC4
:100DD00005D03EF4909581959F4F0895709561954B
:100DE0007F4F0895AA1BBB1B51E107C0AA1FBB1F61
:100DF000A617B70710F0A61BB70B881F991F5A95A7
:100E0000A9F780959095BC01CD010895AEE0B0E0C2
:100E1000ECE0F7E00C94C7090D891E8986E08C830D
:100E20001A8309838FEF9FE79E838D83AE01475E10
:100E30005F4F6F89788DCE0101960E942807EF8160
:100E4000F885E00FF11F10822E96E4E00C94E30980
:100E5000ABE0B0E0EEE2F7E00C94B9096C017B0185
:100E60008A01FC0117821682838181FFCCC1CE01E9
:100E700001963C01F6019381F70193FD859193FF63
:100E800081917F01882309F4BAC1853239F493FD39
:100E9000859193FF81917F01853229F4B60190E01D
:100EA0000E941F09E7CF912C212C312CFFE1F31573
:100EB000D8F08B3279F038F4803279F08332A1F4B3
:100EC000232D20611DC08D3261F0803369F4232D04
:100ED000216016C0832D8260382EE32DE4603E2E03
:100EE0002AC0F32DF8601DC037FC2DC020ED280F5F
:100EF0002A3040F08E32B9F436FC81C1232D2064B3
:100F0000322E19C036FE06C08AE0989E200D1124AC
:100F1000922E11C0EAE02E9E200D1124222EF32DD8
:100F2000F0623F2E08C08C3621F4832D8068382E65
:100F300002C0883641F4F70193FD859193FF8191BA
:100F40007F018111B3CF982F9F7D9554933028F462
:100F50000C5F1F4F9FE399830DC0833631F08337B9
:100F600071F0833509F059C021C0F801808189836F
:100F70000E5F1F4F88248394912C530113C02801C6
:100F8000F2E04F0E511CF801A080B18036FE03C084
:100F9000692D70E002C06FEF7FEFC5010E94140958
:100FA0004C018201F32DFF773F2E16C0280122E06D
:100FB000420E511CF801A080B18036FE03C0692D9D
:100FC00070E002C06FEF7FEFC5010E9409094C017C
:100FD000F32DF0683F2E820133FC1BC0822D90E080
:100FE00088169906B0F4B60180E290E00E941F09CD
:100FF0002A94F4CFF50137FC859137FE81915F018A
:10100000B60190E00E941F0921102A9421E0821A63
:1010100091088114910471F7E8C0843611F0893683
:1010200041F5F80137FE07C06081718182819381AB
:101030000C5F1F4F08C060817181072E000C880B68
:10104000990B0E5F1F4FF32DFF763F2E97FF09C0C0
:1010500090958095709561957F4F8F4F9F4FF06869
:101060003F2E2AE030E0A3010E945B09882E8618FB
:1010700045C0853731F4232D2F7EB22E2AE030E093
:1010800025C0932D997FB92E8F36C1F018F488357D
:1010900079F0B5C0803719F0883721F0B0C0E92F5A
:1010A000E061BE2EB4FE0DC0FB2DF460BF2E09C062
:1010B00034FE0AC0292F2660B22E06C028E030E098
:1010C00005C020E130E002C020E132E0F801B7FEC7
:1010D00007C060817181828193810C5F1F4F06C0C0
:1010E0006081718180E090E00E5F1F4FA3010E943C
:1010F0005B09882E8618FB2DFF773F2E36FE0DC02C
:10110000232D2E7FA22E891458F434FE0BC032FCFE
:1011100009C0832D8E7EA82E05C0B82CA32C03C039
:10112000B82C01C0B92CA4FE0FC0FE01E80DF11DC2
:101130008081803321F49A2D997EA92E09C0A2FEC8
:1011400006C0B394B39404C08A2D867809F0B39492
:10115000A3FC11C0A0FE06C0B21488F4280C922C87
:101160009B180EC0B21460F4B60180E290E00E94B9
:101170001F09B394F7CFB21418F42B1802C0982C9F
:10118000212CA4FE10C0B60180E390E00E941F094C
:10119000A2FE17C0A1FC03C088E790E002C088E56A
:1011A00090E0B6010CC08A2D867859F0A1FE02C0ED
:1011B0008BE201C080E2A7FC8DE2B60190E00E94C4
:1011C0001F09891438F4B60180E390E00E941F09DA
:1011D0009A94F7CF8A94F301E80DF11D8081B6014E
:1011E00090E00E941F098110F5CF222009F442CE21
:1011F000B60180E290E00E941F092A94F6CFF60122
:101200008681978102C08FEF9FEF2B96E2E10C94CD
:10121000D509FC010590615070400110D8F7809508
:1012200090958E0F9F1F0895FC01615070400190B2
:101230000110D8F7809590958E0F9F1F08950F93FA
:101240001F93CF93DF93FB01238121FD03C08FEF19
:101250009FEF2CC022FF16C0468157812481358123
:101260004217530744F4A081B1819D012F5F3F4F86
:10127000318320838C93268137812F5F3F4F3783C3
:10128000268314C08B01EC01FB010084F185E02D65
:101290000995892BE1F6D80116968D919C911797A7
:1012A000019617969C938E931697CE01DF91CF915E
:1012B0001F910F910895FA01AA27283051F120318A
:1012C00081F1E8946F936E7F6E5F7F4F8F4F9F4FDA
:1012D000AF4FB1E03ED0B4E03CD0670F781F891F1C
:1012E0009A1FA11D680F791F8A1F911DA11D6A0FEA
:1012F000711D811D911DA11D20D009F468943F919D
:101300002AE0269F11243019305D3193DEF6CF019B
:101310000895462F4770405D4193B3E00FD0C9F761
:10132000F6CF462F4F70405D4A3318F0495D31FDCE
:101330004052419302D0A9F7EACFB4E0A695979521
:10134000879577956795BA95C9F7009761057105F7
:1013500008959B01AC010A2E069457954795379541
:101360002795BA95C9F7620F731F841F951FA01D9B
:1013700008952F923F924F925F926F927F928F9239
:101380009F92AF92BF92CF92DF92EF92FF920F9314
:101390001F93CF93DF93CDB7DEB7CA1BDB0B0FB61E
:1013A000F894DEBF0FBECDBF09942A8839884888DB
:1013B0005F846E847D848C849B84AA84B984C88471
:1013C000DF80EE80FD800C811B81AA81B981CE0F68
:1013D000D11D0FB6F894DEBF0FBECDBFED0108954D
:0413E000F894FFCFAF
:1013E4000000803F00000041000080420000804374
:1013F400000080446563686F20696E74657272755D
:101404007074200A0D00414E44204543484F205734
:10141400454E54204C4F57200A0D006F7665726676
:101424006C6F7720696E74657272757074200A0D22
:101434000074657374206C63640025642E25642035
:10144400646567726565732043656C736975730AB7
:10145400007374617274696E67207472696767657A
:10146400722070696E670A0D0064697374616E633B
:10147400652063616C63756C617465640A0D006456
:10148400697374616E6365203D20256420636D0A71
:10149400000D0A46696E616C2050726F6A65637450
:1014A400202D20446965676F2C204A656E6572742F
:1014B400682C20526F78616E610A0D000D0A496E26
:1014C40076616C696420436F6D6D616E6420547243
:1014D4007920416761696E2E2E2E000D0A4D656ECE
:1014E400753A20284C2943442C2028412944432C74
:0E14F40020285029696E67205553530A0D00B9
:00000001FF
