S014000046696E616C50726F6A6563742E737265634F
S11300000C9487000C94A4000C94A4000C94A400F9
S11300100C9415020C94A4000C94A4000C94A40059
S11300200C94A4000C94A4000C94A4000C947D02E1
S11300300C94A4000C94E8020C94A4000C94A40066
S11300400C94A4000C94A4000C94A4000C94A4009C
S11300500C94A4000C94A4000C94A4000C94A4008C
S11300600C94A4000C94A4000C94A4000C94A4007C
S11300700C94A4000C94A4000C94A4000C94A4006C
S11300800C94A4000C94A4000C94A4000C94A4005C
S11300900C94A4000C94A4000C94A4000C94A4004C
S11300A00C94A4000C94A4000C94A4000C94A4003C
S11300B00C94A40008000000BE922449123EABAA8E
S11300C0AA2ABECDCCCC4C3E00000080BEABAAAA6E
S11300D0AA3E00000000BF000000803F00000000B6
S11300E000084178D3BB4387D1133D190E3CC3BDEF
S11300F04282AD2B3E68EC8276BED98FE1A93E4C9C
S113010080EFFFBE01C4FF7F3F0000000000112408
S11301101FBECFEFD8E0DEBFCDBF12E0A0E0B1E05C
S1130120E6ECF4E102C005900D92A835B107D9F7C9
S113013022E0A8E5B2E001C01D92A336B207E1F7C0
S11301400E94B2040C94610A0C94000007E004B904
S113015000E005B901B910E007E61093C50000936B
S1130160C40008E10093C10006E00093C20007E860
S113017000937A0000E400937C0000E000937B008D
S11301800EEF00937E000FEF00937F0002E007B9AB
S113019000E008B90E9407010FEF0AB90091580264
S11301A00BB904E005B90E94DC0000E005B90E9427
S11301B0DC000E94010108950AEF1FEF1A95F1F780
S11301C00A95D9F708950E9407010FEF0AB9009123
S11301D058020BB906E005B90E94DC0000E005B93D
S11301E00E94DC000E94010108950E94070100E0C2
S11301F00AB945B80BB10093580205B80E94010131
S1130200089502E00AB908E10093C100089500E0EE
S11302100093C10008950091C00007FF0895009164
S1130220C600F9CF0091C00007FFFCCF0091C600C3
S113023000935A0208951091C00015FFFCCF00915D
S11302405A020093C600089507EC00937A000091C7
S11302507A0006FDFCCF00917800009360020091C3
S1130260790000935902089585B58770833071F041
S113027028F4813041F08230A9F011C0843049F073
S1130280853051F00CC081E090E0089580E490E066
S1130290089580E091E0089580E094E0089580E07E
S11302A090E0089588E090E008958034910589F005
S11302B034F48130910559F0089799F010C08115F4
S11302C021E0920741F08115944039F008C081E0A3
S11302D0089583E0089584E0089585E0089580E01A
S11302E0089582E008954F925F926F927F928F9269
S11302F09F92AF92BF92EF92FF920F931F93CF936F
S1130300DF93CDB7DEB72A970FB6F894DEBF0FBEE2
S1130310CDBF4B015C018AE0E0E0F1E0DE01119623
S113032001900D928A95E1F700E010E028C0F801F1
S1130330EE0FFF1F81E090E08C0F9D1FE80FF91F67
S1130340E080F18020E030E040E851E4C501B401F0
S11303500E94D5062B013C01C7010F2C000CAA0BEF
S1130360BB0B772766270E94D5059B01AC01C3010F
S1130370B2010E94260518162CF40F5F1F4F05309A
S11303801105ACF2109285001092840020E030E058
S113039040E851E4C501B4010E94D5064B015C015B
S11303A0B7010F2C000C880B990B0E94D5059B01FB
S11303B0AC01C501B4010E942B050E94A4057093F1
S11303C089006093880012E010936F00C7010E94B7
S11303D05501809381001093680084E080936C0041
S11303E078942A960FB6F894DEBF0FBECDBFDF9186
S11303F0CF911F910F91FF90EF90BF90AF909F907E
S11304008F907F906F905F904F900895CF93DF937C
S1130410EC0105C0219680935A020E941B01888139
S11304208111F8CFDF91CF9108951F920F920FB6EB
S11304300F9211240F931F932F933F934F935F9326
S11304406F937F938F939F93AF93BF93EF93FF9398
S1130450CF93DF93CDB7DEB7C058D109DEBFCDBF90
S113046032992FC010928100009184001091850070
S11304700E9434019C01209FC001219F900D309F58
S1130480900D1124929582958F7089279F708927EA
S11304909F938F9383E991E09F938F938E010F5FD6
S11304A01F4F1F930F930E947707C8010E940602F3
S11304B086B3826086BB0F900F900F900F900F90C1
S11304C00F90C058DF4F0FB6F894DEBF0FBECDBFFC
S11304D0DF91CF91FF91EF91BF91AF919F918F9158
S11304E07F916F915F914F913F912F911F910F9148
S11304F00F900FBE0F901F9018951F920F920FB67A
S11305000F9211240F931F932F933F934F935F9355
S11305106F937F938F939F93AF93BF93EF93FF93C7
S1130520CF93DF93CDB7DEB7C058D109DEBFCDBFBF
S1130530E1E8F0E080818E7F8083E4E8F0E01182DE
S1130540108286B3826086BB008111810E943401CF
S11305509C01209FC001219F900D309F900D11247C
S1130560929582958F7089279F7089279F938F9387
S11305708AE891E09F938F938E010F5F1F4F1F9323
S11305800F930E947707C8010E9406020F900F90F4
S11305900F900F900F900F90C058DF4F0FB6F89444
S11305A0DEBF0FBECDBFDF91CF91FF91EF91BF9121
S11305B0AF919F918F917F916F915F914F913F91F7
S11305C02F911F910F910F900FBE0F901F901895B0
S11305D01F920F920FB60F9211242F933F934F93B4
S11305E05F936F937F938F939F93AF93BF93EF9397
S11305F0FF93CF93DF93CDB7DEB7C058D109DEBFE9
S1130600CDBF1092810083E1EAE0F1E0DE011196B2
S113061001900D928A95E1F7FE0174968DE6DF0153
S11306201D928A95E9F7CE0101960E94060286B3CF
S1130630826086BBC058DF4F0FB6F894DEBF0FBE92
S1130640CDBFDF91CF91FF91EF91BF91AF919F917A
S11306508F917F916F915F914F913F912F910F9067
S11306600FBE0F901F901895CF93DF93EC0105C038
S11306702196809358020E94E30088818111F8CF6B
S1130680DF91CF910895CF93DF9384E38093580251
S11306900E94CA0088E0809358020E94CA0082E047
S11306A0809358020E94CA0086E0809358020E94F8
S11306B0CA008FE0809358020E94CA00C1E0D0E0D3
S11306C00BC088E1809358020E94CA0085EA91E039
S11306D00E94340300002197209799F7DF91CF916E
S11306E008958F929F92AF92BF92CF92DF92EF9232
S11306F0FF92BC01990F880B990B0E94D50523E347
S113070033E343E550E40E94D50620E030E040E8BE
S11307105AE30E94D5066B017C0120E030E44CE1F1
S113072056E40E94D5064B015C01A701960163E3E0
S113073073E383E590E40E94B9049B01AC01C50115
S1130740B4010E942B0520E030E44CE156E40E9401
S11307502B050E948D0620E030EE46E755E40E940A
S11307602B052FE03FEC4BE55BE30E94BA049B01B1
S1130770AC0160E070E080E89FE30E942B0523E376
S113078033E948E853E40E94B904FF90EF90DF9006
S1130790CF90BF90AF909F908F9008958F929F922B
S11307A0AF92BF92CF92DF92EF92FF928091590263
S11307B090E0982F882720916002822B0E94710379
S11307C04B015C010E949D056B017C0180E090E07F
S11307D00E94D3059B01AC01C501B4010E94B90478
S11307E020E030E048EC52E40E94D5060E949D05CA
S11307F07F936F93DF92CF928BEA91E09F938F93D5
S11308008BE592E09F938F930E9477078BE592E0AC
S11308100E9406028DB79EB708960FB6F8949EBF45
S11308200FBE8DBFFF90EF90DF90CF90BF90AF9041
S11308309F908F900895CF93DF9382EC91E00E9474
S1130840060288B1826088B9000088B18D7F88B9BA
S113085060E074E284E799E40E947301C09184002B
S1130860D09185000E9434019C012C9FC0012D9FD2
S1130870900D3C9F900D1124BC01729562956F7090
S113088067277F70672780E090E00E94D30520E00F
S11308903CEF45E057E40E94D50620E030E040E01C
S11308A05FE30E94D5060E949D05CB01DF91CF91A5
S11308B008950F931F93CF93DF93CDB7DEB72A9795
S11308C00FB6F894DEBF0FBECDBF0E941B049F93EA
S11308D08F9389ED91E09F938F938E010F5F1F4F4C
S11308E01F930F930E947707C8010E940602C80154
S11308F00E9434030F900F900F900F900F900F9061
S11309002A960FB6F894DEBF0FBECDBFDF91CF910C
S11309101F910F9108958BEE91E00E943403089586
S113092085E392E00E94060210925A0202C00E94DD
S1130930120180915A028823D1F38C3629F0803732
S113094049F0813651F403C00E94430308950E9484
S1130950CE0308950E945904089586E192E00E940E
S1130960060208950E94A6000E948B040E9490042F
S1130970FDCF5058BB27AA270E94D1040C944B06E4
S11309800E943D0638F00E94440620F039F49F3F4F
S113099019F426F40C943A060EF4E095E7FB0C9453
S11309A03406E92F0E945C0658F3BA1762077307EE
S11309B08407950720F079F4A6F50C947E060EF4CE
S11309C0E0950B2EBA2FA02D0B01B90190010C015B
S11309D0CA01A0011124FF27591B99F0593F50F473
S11309E0503E68F11A16F040A22F232F342F4427CB
S11309F0585FF3CF469537952795A795F0405395C3
S1130A00C9F77EF41F16BA0B620B730B840BBAF092
S1130A109150A1F0FF0FBB1F661F771F881FC2F7FD
S1130A200EC0BA0F621F731F841F48F48795779511
S1130A306795B795F7959E3F08F0B0CF9395880FCB
S1130A4008F09927EE0F9795879508950E94100650
S1130A5008F481E008950E943F050C944B060E941F
S1130A60440658F00E943D0640F029F45F3F29F007
S1130A700C94340651110C947F060C943A060E948F
S1130A805C0668F39923B1F3552391F3951B550B39
S1130A90BB27AA2762177307840738F09F5F5F4F4D
S1130AA0220F331F441FAA1FA9F335D00E2E3AF08C
S1130AB0E0E832D091505040E695001CCAF72BD0A4
S1130AC0FE2F29D0660F771F881FBB1F26173707F5
S1130AD04807AB07B0E809F0BB0B802DBF01FF2727
S1130AE093585F4F3AF09E3F510578F00C943406CA
S1130AF00C947F065F3FE4F3983ED4F38695779594
S1130B006795B795F7959F5FC9F7880F911D9695DF
S1130B10879597F90895E1E0660F771F881FBB1F3B
S1130B20621773078407BA0720F0621B730B840BE8
S1130B30BA0BEE1F88F7E09508950E94A405689407
S1130B40B1110C947F0608950E94640688F09F57A3
S1130B5098F0B92F9927B751B0F0E1F0660F771FDD
S1130B60881F991F1AF0BA95C9F714C0B13091F0D3
S1130B700E947E06B1E008950C947E06672F782FBC
S1130B808827B85F39F0B93FCCF386957795679598
S1130B90B395D9F73EF490958095709561957F4F04
S1130BA08F4F9F4F0895E89409C097FB3EF49095AA
S1130BB08095709561957F4F8F4F9F4F9923A9F032
S1130BC0F92F96E9BB279395F695879577956795C1
S1130BD0B795F111F8CFFAF4BB0F11F460FF1BC005
S1130BE06F5F7F4F8F4F9F4F16C0882311F096E998
S1130BF011C0772321F09EE8872F762F05C0662346
S1130C0071F096E8862F70E060E02AF09A95660FFE
S1130C10771F881FDAF7880F9695879597F90895B7
S1130C20990F0008550FAA0BE0E8FEEF16161706F9
S1130C30E807F907C0F012161306E407F50798F061
S1130C40621B730B840B950B39F40A2661F0232B7A
S1130C50242B252B21F408950A2609F4A140A695F6
S1130C608FEF811D811D089597F99F6780E870E0DB
S1130C7060E008959FEF80EC089500240A9416160E
S1130C80170618060906089500240A941216130676
S1130C90140605060895092E0394000C11F4882304
S1130CA052F0BB0F40F4BF2B11F460FF04C06F5F20
S1130CB07F4F8F4F9F4F089557FD9058440F551FF6
S1130CC059F05F3F71F04795880F97FB991F61F0CA
S1130CD09F3F79F087950895121613061406551F41
S1130CE0F2CF4695F1DF08C0161617061806991FAD
S1130CF0F1CF86957105610508940895E894BB27A2
S1130D0066277727CB0197F9089516F00C944207CC
S1130D100C943A0668940C9434060E946406A8F372
S1130D209923C1F3AEF3DF93CF931F930F93FF92F5
S1130D30C92FDD2788232AF02197660F771F881F84
S1130D40DAF720E030E040E85FEB9FE3883920F0F9
S1130D50803E38F021968F770E94BA04E4EBF0E0ED
S1130D6004C00E94BA04E1EEF0E00E9450078B0137
S1130D70BE01EC01FB2E6F5771097595771F880B27
S1130D80990B0E94D50528E132E741E35FE30E9415
S1130D90E806AF2D9801AE01FF900F911F91CF91FE
S1130DA0DF910E94D1040C944B060E94E8060C9437
S1130DB04B060E943D0638F00E94440620F095231D
S1130DC011F00C9434060C943A0611240C947F060A
S1130DD00E945C0670F3959FC1F3950F50E0551F78
S1130DE0629FF001729FBB27F00DB11D639FAA277C
S1130DF0F00DB11DAA1F649F6627B00DA11D661FCB
S1130E00829F2227B00DA11D621F739FB00DA11DEB
S1130E10621F839FA00D611D221F749F3327A00DA5
S1130E20611D231F849F600D211D822F762F6A2F41
S1130E3011249F5750409AF0F1F088234AF0EE0FA6
S1130E40FF1FBB1F661F771F881F91505040A9F7D3
S1130E509E3F510580F00C9434060C947F065F3F4E
S1130E60E4F3983ED4F3869577956795B795F7950F
S1130E70E7959F5FC1F7FE2B880F911D9695879587
S1130E8097F908959F3F31F0915020F48795779515
S1130E906795B795880F911D9695879597F908954D
S1130EA0DF93CF931F930F93FF92EF92DF927B0117
S1130EB08C01689406C0DA2EEF010E94E806FE0158
S1130EC0E894A5912591359145915591A6F3EF01AB
S1130ED00E94D104FE019701A801DA9469F7DF901A
S1130EE0EF90FF900F911F91CF91DF910895AEE0A5
S1130EF0B0E0EDE7F7E00C94380A0D891E8986E02E
S1130F008C831A8309838FEF9FE79E838D83AE01C1
S1130F10475E5F4F6F89788DCE0101960E949907D5
S1130F20EF81F885E00FF11F10822E96E4E00C9417
S1130F30540AABE0B0E0EFE9F7E00C942A0A6C0144
S1130F407B018A01FC0117821682838181FFCCC157
S1130F50CE0101963C01F6019381F70193FD859141
S1130F6093FF81917F01882309F4BAC1853239F452
S1130F7093FD859193FF81917F01853229F4B60118
S1130F8090E00E949009E7CF912C212C312CFFE1B5
S1130F90F315D8F08B3279F038F4803279F083325B
S1130FA0A1F4232D20611DC08D3261F0803369F4DA
S1130FB0232D216016C0832D8260382EE32DE4603A
S1130FC03E2E2AC0F32DF8601DC037FC2DC020ED45
S1130FD0280F2A3040F08E32B9F436FC81C1232D1B
S1130FE02064322E19C036FE06C08AE0989E200D79
S1130FF01124922E11C0EAE02E9E200D1124222EDF
S1131000F32DF0623F2E08C08C3621F4832D8068C6
S1131010382E02C0883641F4F70193FD859193FF81
S113102081917F018111B3CF982F9F7D9554933087
S113103028F40C5F1F4F9FE399830DC0833631F072
S1131040833771F0833509F059C021C0F8018081DC
S113105089830E5F1F4F88248394912C530113C0FE
S11310602801F2E04F0E511CF801A080B18036FE39
S113107003C0692D70E002C06FEF7FEFC5010E94CD
S113108085094C018201F32DFF773F2E16C02801FC
S113109022E0420E511CF801A080B18036FE03C04C
S11310A0692D70E002C06FEF7FEFC5010E947A09DD
S11310B04C01F32DF0683F2E820133FC1BC0822DBE
S11310C090E088169906B0F4B60180E290E00E94A0
S11310D090092A94F4CFF50137FC859137FE81916C
S11310E05F01B60190E00E94900921102A9421E04A
S11310F0821A91088114910471F7E8C0843611F0C2
S1131100893641F5F80137FE07C06081718182811B
S113111093810C5F1F4F08C060817181072E000C02
S1131120880B990B0E5F1F4FF32DFF763F2E97FF11
S113113009C090958095709561957F4F8F4F9F4F13
S1131140F0683F2E2AE030E0A3010E94CC09882EEB
S1131150861845C0853731F4232D2F7EB22E2AE020
S113116030E025C0932D997FB92E8F36C1F018F445
S1131170883579F0B5C0803719F0883721F0B0C0D0
S1131180E92FE061BE2EB4FE0DC0FB2DF460BF2E2E
S113119009C034FE0AC0292F2660B22E06C028E0FA
S11311A030E005C020E130E002C020E132E0F80187
S11311B0B7FE07C060817181828193810C5F1F4FEC
S11311C006C06081718180E090E00E5F1F4FA30133
S11311D00E94CC09882E8618FB2DFF773F2E36FE01
S11311E00DC0232D2E7FA22E891458F434FE0BC07B
S11311F032FC09C0832D8E7EA82E05C0B82CA32CEA
S113120003C0B82C01C0B92CA4FE0FC0FE01E80D28
S1131210F11D8081803321F49A2D997EA92E09C075
S1131220A2FE06C0B394B39404C08A2D867809F054
S1131230B394A3FC11C0A0FE06C0B21488F4280C19
S1131240922C9B180EC0B21460F4B60180E290E0B8
S11312500E949009B394F7CFB21418F42B1802C06B
S1131260982C212CA4FE10C0B60180E390E00E94CB
S11312709009A2FE17C0A1FC03C088E790E002C059
S113128088E590E0B6010CC08A2D867859F0A1FE5D
S113129002C08BE201C080E2A7FC8DE2B60190E0BF
S11312A00E949009891438F4B60180E390E00E940A
S11312B090099A94F7CF8A94F301E80DF11D808187
S11312C0B60190E00E9490098110F5CF222009F424
S11312D042CEB60180E290E00E9490092A94F6CFB3
S11312E0F6018681978102C08FEF9FEF2B96E2E192
S11312F00C94460AFC010590615070400110D8F727
S1131300809590958E0F9F1F0895FC016150704049
S113131001900110D8F7809590958E0F9F1F089526
S11313200F931F93CF93DF93FB01238121FD03C010
S11313308FEF9FEF2CC022FF16C046815781248176
S113134035814217530744F4A081B1819D012F5F79
S11313503F4F318320838C93268137812F5F3F4F0A
S11313603783268314C08B01EC01FB010084F185D3
S1131370E02D0995892BE1F6D80116968D919C9163
S11313801797019617969C938E931697CE01DF912B
S1131390CF911F910F910895FA01AA27283051F196
S11313A0203181F1E8946F936E7F6E5F7F4F8F4F92
S11313B09F4FAF4FB1E03ED0B4E03CD0670F781FF1
S11313C0891F9A1FA11D680F791F8A1F911DA11DD6
S11313D06A0F711D811D911DA11D20D009F468940F
S11313E03F912AE0269F11243019305D3193DEF6B7
S11313F0CF010895462F4770405D4193B3E00FD06D
S1131400C9F7F6CF462F4F70405D4A3318F0495D57
S113141031FD4052419302D0A9F7EACFB4E0A6953A
S11314209795879577956795BA95C9F7009761055C
S1131430710508959B01AC010A2E069457954795B2
S113144037952795BA95C9F7620F731F841F951FA7
S1131450A01D08952F923F924F925F926F927F92B8
S11314608F929F92AF92BF92CF92DF92EF92FF92B0
S11314700F931F93CF93DF93CDB7DEB7CA1BDB0B5C
S11314800FB6F894DEBF0FBECDBF09942A88398801
S113149048885F846E847D848C849B84AA84B98408
S11314A0C884DF80EE80FD800C811B81AA81B98114
S11314B0CE0FD11D0FB6F894DEBF0FBECDBFED0128
S10914C00895F894FFCF2B
S11314C60100080040000001000454696D65723192
S11314D6206F766572666C6F7765640A000000009B
S11314E600000000000000000000000000000000F2
S11314F600000000000000000000000000000000E2
S113150600000000000000000000000000000000D1
S113151600000000000000000000000000000000C1
S113152600000000000000000000000000000000B1
S113153600000000000000000000000000000000A1
S11315460000000000000000000074696D656F75FE
S1131556742C2074696D6520656C61707365643ADA
S11315662025640A0048656C6C6F0025642E25648A
S113157620646567726565732043656C736975736A
S11315860A007374617274696E672074726967679E
S113159665722070696E670A0064697374616E63AC
S11315A665203D20256420636D0A000D0A46696E98
S11315B6616C2050726F6A656374202D20446965DE
S11315C6676F2C204A656E657274682C20526F789A
S11315D6616E610A0D000D0A496E76616C696420BC
S11315E6436F6D6D616E6420547279204167616941
S11315F66E2E2E2E000D0A4D656E753A20284C2946
S113160643442C2028412944432C20285029696E20
S10B161667205553530A0D002F
S9030000FC
